:100000000C9434000C9449000C9449000C94490061
:100010000C9449000C9449000C9449000C9449003C
:100020000C9449000C9449000C9449000C9449002C
:100030000C9449000C9449000C9449000C9449001C
:100040000C9449000C9449000C9449000C9449000C
:100050000C9449000C9449000C9449000C944900FC
:100060000C9449000C94490011241FBECFEFD8E036
:10007000DEBFCDBF11E0A0E0B1E0EEEEF2E002C0E5
:1000800005900D92A032B107D9F70E94D3000C94CD
:1000900075010C94000084B1816284B93898409A4B
:1000A0000895EAE7F0E087E08083808180688083BC
:1000B00080E480937C000895CF93DF939B01FB0144
:1000C0003496CAE0D0E0BE010E943F01805D829379
:1000D000CB01E217F307B9F71482DF91CF910895AE
:1000E00090917C00907F90937C0090917C00892B74
:1000F00080937C0080917A00806480937A00809164
:100100007A0086FDFCCF209178008091790090E004
:10011000982F8827820F911D08959B01AC0183E0E1
:10012000220F331F441F551F8A95D1F760E074E2F8
:1001300084EF90E00E945301215031093093C500B3
:100140002093C400E1ECF0E0808188618083E0ECE2
:10015000F0E080818260808308958091C00087FFF5
:10016000FCCF8091C60008959091C00095FFFCCF10
:100170008093C6000895CF93DF93EC018991882383
:1001800019F00E94B400FACFDF91CF910895209129
:10019000C00027FF06C02091C600FC01208381E03B
:1001A000089580E00895CF93DF93CDB7DEB7A4978D
:1001B0000FB6F894DEBF0FBECDBF60E072EC81E0F9
:1001C00090E00E948D000E9451000E944B008FE140
:1001D000E0E0F1E0DE01119601900D928A95E1F7E1
:1001E000CE0101960E94BB0010E086E6E82EF12CBD
:1001F00080E090E00E94C7008823C1F08091000059
:10020000833571F018F4823531F010C0823719F05F
:10021000833731F00BC08CE191E00E94BB0008C035
:100220008CE191E00E94BB0010E0E2CF112301F3CA
:1002300080E00E9470008C01189A1D9ABE01605ED9
:100240007F4F0E945C00CE0180960E94BB008CE133
:1002500091E00E94BB00C801B7010E943F01862FB8
:1002600090E02FEF30E742E0215030404040E1F78E
:1002700000C000009F5F8917A0F711E0B9CFAA1B4B
:10028000BB1B51E107C0AA1FBB1FA617B70710F081
:10029000A61BB70B881F991F5A95A9F780959095B3
:1002A000BC01CD010895A1E21A2EAA1BBB1BFD01C2
:1002B0000DC0AA1FBB1FEE1FFF1FA217B307E40745
:1002C000F50720F0A21BB30BE40BF50B661F771F9D
:1002D000881F991F1A9469F760957095809590957D
:0E02E0009B01AC01BD01CF010895F894FFCF42
:1002EE005374617274652050726F6772616D6D2008
:1002FE0041737369676E6D656E745F330A0D00002E
:00000001FF
