:100000000C9434000C943E000C943E000C943E0082
:100010000C943E000C943E000C943E000C943E0068
:100020000C943E000C943E000C943E000C943E0058
:100030000C943E000C943E000C943E000C943E0048
:100040000C943E000C943E000C943E000C943E0038
:100050000C943E000C943E000C943E000C943E0028
:100060000C943E000C943E0011241FBECFEFD8E04C
:10007000DEBFCDBF0E9440000C94B3000C94000082
:1000800084B18C6384B957985F9A83E095B19C637F
:1000900095B92FEF31EE94E0215030409040E1F7D8
:1000A00000C0000095B1907C95B92FEF31EE94E03F
:1000B000215030409040E1F700C00000815031F7FE
:1000C0004F9B24C02A982D9A2FEF39E688E12150C2
:1000D00030408040E1F700C000002D982C9A9FEF3F
:1000E00029E638E1915020403040E1F700C000009F
:1000F0002C982B9A8FEF99E628E181509040204070
:10010000E1F700C000002B982A9A23C02D982A9A64
:100110002FEF39E688E1215030408040E1F700C000
:1001200000002A982B9A9FEF29E638E19150204051
:100130003040E1F700C000002B982C9A8FEF99E631
:1001400028E1815090402040E1F700C000002C9849
:100150002D9A3FEF89E698E1315080409040E1F7D9
:0A01600000C00000ADCFF894FFCFFF
:00000001FF
