:100000000C9434000C9449000C9449000C94490061
:100010000C9449000C9449000C9449000C9449003C
:100020000C9449000C9449000C9449000C9449002C
:100030000C9449000C9449000C9449000C9449001C
:100040000C9449000C9449000C9449000C9449000C
:100050000C9449000C9449000C9449000C944900FC
:100060000C9449000C94490011241FBECFEFD8E036
:10007000DEBFCDBF11E0A0E0B1E0E0E6F1E002C0FC
:1000800005900D92AE31B107D9F70E9481000C9412
:10009000AE000C9400008091C00008959091C000C3
:1000A00095FFFCCF8093C6000895CF93DF93EC01BA
:1000B0008991882319F00E944E00FACFDF91CF91E9
:1000C00008959B01AC0183E0220F331F441F551F8D
:1000D0008A95D1F760E074E284EF90E00E948C0092
:1000E000215031093093C5002093C400E1ECF0E0C9
:1000F000808188618083E0ECF0E080818260808391
:10010000089560E072EC81E090E00E94610080E080
:1001100091E00E9455000895A1E21A2EAA1BBB1B74
:10012000FD010DC0AA1FBB1FEE1FFF1FA217B307C3
:10013000E407F50720F0A21BB30BE40BF50B661FD9
:10014000771F881F991F1A9469F76095709580959D
:1001500090959B01AC01BD01CF010895F894FFCFAC
:1001600048616C6C6F206963682076657273656E98
:0E017000646520697267656E647761732100B3
:00000001FF
