:100000000C9434000C9451000C94B4000C945100E6
:100010000C9451000C9451000C9451000C9451001C
:100020000C9451000C9451000C9451000C9451000C
:100030000C9451000C941E010C9451000C9451002E
:100040000C9451000C9451000C9451000C945100EC
:100050000C9451000C9451000C9451000C945100DC
:100060000C9451000C94510011241FBECFEFD8E026
:10007000DEBFCDBF11E0A0E0B1E0E0E1F3E002C0FF
:1000800005900D92A631B107D9F728E0A6E1B1E0BD
:1000900001C01D92A93EB207E1F70E942D010C9408
:1000A00086010C9400009B01AC0183E0220F331FFA
:1000B000441F551F8A95D1F760E074E284EF90E009
:1000C0000E946401215031093093C5002093C4007F
:1000D000E1ECF0E0808188618083E0ECF0E08081F9
:1000E0008260808308959091C00095FFFCCF80933B
:1000F000C6000895CF93DF93EC018991882319F00E
:100100000E947300FACFDF91CF910895E1E8F0E00B
:10011000808184608083EFE6F0E08081816080836D
:1001200008951092850010928400089523982B9AC8
:100130000895E99AE9E6F0E080818460808308957B
:10014000CF93DF939B01FB013596CAE0D0E0BE015F
:100150000E945001805D8293CB01E217F307B9F74B
:100160001582DF91CF9108951F920F920FB60F92D3
:1001700011242F933F934F935F936F937F938F93AC
:100180009F93AF93BF93EF93FF93CF93DF93CDB73D
:10019000DEB72697DEBFCDBF80910001882339F0FE
:1001A0001092850010928400109200012EC0809160
:1001B0001801E0911801F0E0809184009091850091
:1001C000EE0FFF1FE75EFE4F918380831092850044
:1001D00010928400E0911801F0E0EE0FFF1FE75E3F
:1001E000FE4F80819181BE016F5F7F4F0E94A00012
:1001F00081E091E00E947A00CE0101960E947A008F
:10020000809118018F5F8093180126960FB6F8949D
:10021000DEBF0FBECDBFDF91CF91FF91EF91BF91B8
:10022000AF919F918F917F916F915F914F913F918E
:100230002F910F900FBE0F901F9018951F920F9245
:100240000FB60F9211248F9381E0809316018F9146
:100250000F900FBE0F901F90189560E072EC81E038
:1002600090E00E9453000E9499000E9496000E9414
:10027000860078942FEF83E294EF215080409040E5
:10028000E1F700C0000084E091E00E947A008091D4
:100290001701811104C080911601882359F3089534
:1002A000AA1BBB1B51E107C0AA1FBB1FA617B7079C
:1002B00010F0A61BB70B881F991F5A95A9F78095B8
:1002C0009095BC01CD010895A1E21A2EAA1BBB1B7B
:1002D000FD010DC0AA1FBB1FEE1FFF1FA217B30712
:1002E000E407F50720F0A21BB30BE40BF50B661F28
:1002F000771F881F991F1A9469F7609570958095EC
:1003000090959B01AC01BD01CF010895F894FFCFFA
:10031000010A0D0044656C617920357320766F7297
:0603200062656921000086
:00000001FF
