:100000000C9434000C947E000C9488000C944900ED
:100010000C9449000C9449000C9449000C9449003C
:100020000C9449000C9449000C9449000C9449002C
:100030000C9449000C9449000C9449000C9449001C
:100040000C9449000C9449000C9449000C9449000C
:100050000C9449000C9449000C9449000C944900FC
:100060000C9449000C94490011241FBECFEFD8E036
:10007000DEBFCDBF11E0A0E0B1E0E6EBF1E002C0F1
:1000800005900D92A231B107D9F70E94A2000C94FD
:10009000D9000C9400009B01AC0183E0220F331FB8
:1000A000441F551F8A95D1F760E074E284EF90E019
:1000B0000E94B700215031093093C5002093C4003D
:1000C000E1ECF0E0808188618083E0ECF0E0808109
:1000D0008260808308959091C00095FFFCCF80934B
:1000E000C6000895CF93DF93EC018991882319F01E
:1000F0000E946B00FACFDF91CF9108951F920F926B
:100100000FB60F9211240F900FBE0F901F901895ED
:100110001F920F920FB60F9211240F900FBE0F90E7
:100120001F90189581E085BD80936E0016BC0895E0
:1001300057985F9A0895E9E6F0E0808181608083B6
:10014000E89A089560E072EC81E090E00E944B0034
:1001500080E091E00E9472000E949B0089E091E0A3
:100160000E9472000E9498000E949200FFCFA1E2BC
:100170001A2EAA1BBB1BFD010DC0AA1FBB1FEE1F21
:10018000FF1FA217B307E407F50720F0A21BB30B6C
:10019000E40BF50B661F771F881F991F1A9469F7E8
:1001A00060957095809590959B01AC01BD01CF0144
:0601B0000895F894FFCF52
:1001B60054657374312E0A0D0054657374322E0A19
:0201C6000D002A
:00000001FF
