:100000000C9434000C9451000C94CB000C945100CF
:100010000C9451000C9451000C9451000C9451001C
:100020000C9451000C9451000C9451000C9451000C
:100030000C9451000C9414010C9451000C94510038
:100040000C94FF000C9451000C9451000C9451003E
:100050000C9451000C9451000C9451000C945100DC
:100060000C9451000C94510011241FBECFEFD8E026
:10007000DEBFCDBF11E0A0E0B1E0EEE0F4E002C0F1
:1000800005900D92AC32B107D9F728E0ACE2B1E0AF
:1000900001C01D92AF3FB207E1F70E94B2010C947C
:1000A00005020C9400009B01AC0183E0220F331F7A
:1000B000441F551F8A95D1F760E074E284EF90E009
:1000C0000E94E301215031093093C5002093C40000
:1000D000E1ECF0E0808188618083E0ECF0E08081F9
:1000E0008260808308959091C00095FFFCCF80933B
:1000F000C6000895CF93DF93EC018991882319F00E
:100100000E947300FACFDF91CF91089585B5826088
:1001100085BDEEE6F0E08081816080838CEC86BD59
:10012000089585B58D7F85BDEEE6F0E080818E7FF8
:1001300080838CEC86BD0895E1E8F0E080818460E6
:100140008083EFE6F0E080818160808308951092E3
:100150008500109284000895209A53985B9A089520
:10016000E99AE9E6F0E08081846080830895CF9386
:10017000DF939B01FB013596CAE0D0E0BE010E94EF
:10018000CF01805D8293CB01E217F307B9F71582A7
:10019000DF91CF9108951F920F920FB60F92112405
:1001A0002F933F938F93EF93FF93809100018823C8
:1001B00039F010928500109284001092000115C051
:1001C00080912E01E82FF0E020918400309185008D
:1001D000EE0FFF1FE15DFE4F3183208310928500FB
:1001E000109284008F5F80932E01FF91EF918F9189
:1001F0003F912F910F900FBE0F901F9018951F9257
:100200000F920FB60F9211248F939F93289A95B156
:1002100081E0892785B98CEC86BD9F918F910F90E5
:100220000FBE0F901F9018951F920F920FB60F924E
:1002300011242F933F934F935F936F937F938F93EB
:100240009F93AF93BF93EF93FF9381E080932C0133
:1002500080910101882319F00E94860002C00E944B
:100260009100FF91EF91BF91AF919F918F917F91FD
:100270006F915F914F913F912F910F900FBE0F9013
:100280001F901895EF92FF920F931F93CF93DF93D8
:1002900000D000D000D0CDB7DEB782E091E00E9460
:1002A0007A0000E010E0C801880F991F9C01215DD1
:1002B0003E4F7901F90180819181BE016F5F7F4FCF
:1002C0000E94B700CE0101960E947A0087E191E07A
:1002D0000E947A00F70180819181892B71F4FFEFF0
:1002E00025EA3EE0F15020403040E1F700C0000038
:1002F0008AE191E00E947A0006C00F5F1F4F083E1E
:1003000083E0180781F626960FB6F894DEBF0FBE7D
:10031000CDBFDF91CF911F910F91FF90EF90089586
:1003200080912C018823E9F0F901EE0FFF1FE15DB8
:10033000FE4F808191818095909590938500809368
:1003400084009091010181E0911180E0809301018E
:100350002F5F3F4F80912C018823E1F310922C01F5
:10036000DFCF089560E072EC81E090E00E945300DE
:100370000E94B0000E94AC000E949C0078942FEF75
:1003800089E698E1215080409040E1F700C00000EC
:100390008FE291E00E9490010E9442010895AA1B01
:1003A000BB1B51E107C0AA1FBB1FA617B70710F060
:1003B000A61BB70B881F991F5A95A9F78095909592
:1003C000BC01CD010895A1E21A2EAA1BBB1BFD01A1
:1003D0000DC0AA1FBB1FEE1FFF1FA217B307E40724
:1003E000F50720F0A21BB30BE40BF50B661F771F7C
:1003F000881F991F1A9469F760957095809590955C
:0E0400009B01AC01BD01CF010895F894FFCF20
:10040E0001014175736761626520646573204172F5
:10041E00726179730A0D000D0A00456E64652064E1
:0C042E006573204172726179730A0D0041
:00000001FF
