:100000000C9434000C9451000C94DE000C945100BC
:100010000C9451000C9451000C9451000C9451001C
:100020000C9451000C94D4000C9451000C94510089
:100030000C9451000C9438010C9451000C94510014
:100040000C9424010C9451000C9451000C94510018
:100050000C9451000C9451000C9451000C945100DC
:100060000C9451000C94510011241FBECFEFD8E026
:10007000DEBFCDBF11E0A0E0B1E0EAEEF4E002C0E7
:1000800005900D92A233B107D9F729E0A2E3B1E0C0
:1000900001C01D92A530B207E1F70E94D6010C9471
:1000A00073020C9400009B01AC0183E0220F331F0C
:1000B000441F551F8A95D1F760E074E284EF90E009
:1000C0000E945102215031093093C5002093C40091
:1000D000E1ECF0E0808188618083E0ECF0E08081F9
:1000E0008260808308959091C00095FFFCCF80933B
:1000F000C6000895CF93DF93EC018991882319F00E
:100100000E947300FACFDF91CF91089585B5816089
:1001100085BDEEE6F0E08081816080838CEC86BD59
:10012000089585B58E7F85BDEEE6F0E080818E7FF7
:1001300080830895E1E8F0E0808184608083EFE6C9
:10014000F0E0808181608083089510928500109294
:1001500084000895E1EBF0E0808181608083E0E736
:10016000F0E08081816080830895549A23982B9ACF
:100170000895E99AE9E6F0E080818460808308953B
:10018000CF93DF939B01FB013596CAE0D0E0BE011F
:100190000E943D02805D8293CB01E217F307B9F71D
:1001A0001582DF91CF9108951F920F920FB60F9293
:1001B00011240F900FBE0F901F9018951F920F9251
:1001C0000FB60F9211242F933F934F935F936F932A
:1001D0007F938F939F93AF93BF93EF93FF9382E0AF
:1001E00091E00E947A0080910001882339F01092FA
:1001F0008500109284001092000115C08091340196
:10020000E82FF0E02091840030918500EE0FFF1F71
:10021000EB5CFE4F318320831092850010928400A6
:100220008F5F80933401FF91EF91BF91AF919F91C8
:100230008F917F916F915F914F913F912F910F908F
:100240000FBE0F901F9018951F920F920FB60F922E
:1002500011248F939F939BB180E189278BB98CECFC
:1002600086BD9F918F910F900FBE0F901F90189594
:100270001F920F920FB60F9211242F933F934F931B
:100280005F936F937F938F939F93AF93BF93EF93FE
:10029000FF9381E08093320180910101882319F05E
:1002A0000E94860002C00E949100FF91EF91BF91D1
:1002B000AF919F918F917F916F915F914F913F91FE
:1002C0002F910F900FBE0F901F901895EF92FF92F5
:1002D0000F931F93CF93DF9300D000D000D0CDB702
:1002E000DEB787E091E00E947A0000E010E0C801EC
:1002F000880F991F9C012B5C3E4F7901F901808189
:100300009181BE016F5F7F4F0E94C000CE010196B8
:100310000E947A008CE191E00E947A00F7018081CE
:100320009181892B71F4FFEF25EA3EE0F1502040E6
:100330003040E1F700C000008FE191E00E947A00B8
:1003400006C00F5F1F4F083E83E0180781F6269610
:100350000FB6F894DEBF0FBECDBFDF91CF911F91D6
:100360000F91FF90EF900895809132018823E9F07A
:10037000F901EE0FFF1FEB5CFE4F808191818095AC
:10038000909590938500809384009091010181E085
:10039000911180E0809301012F5F3F4F80913201E6
:1003A0008823E1F310923201DFCF0895EF92FF929C
:1003B0000F931F93CF93DF9300D000D000D0CDB721
:1003C000DEB760E072EC81E090E00E9453000E9492
:1003D000B9000E94B5000E949A0078942FEF39E688
:1003E00088E1215030408040E1F700C0000085E303
:1003F00091E00E94B40187E091E00E947A0000E061
:1004000010E0C801880F991FFC01EB5CFE4F7F01D3
:1004100080819181BE016F5F7F4F0E94C000CE013D
:1004200001960E947A008CE191E00E947A00F70127
:1004300080819181892B71F4FFEF25EA3EE0F15034
:1004400020403040E1F700C000008FE191E00E94C1
:100450007A0006C00F5F1F4F083E83E0180789F639
:1004600026960FB6F894DEBF0FBECDBFDF91CF91B9
:100470001F910F91FF90EF900895AA1BBB1B51E1B4
:1004800007C0AA1FBB1FA617B70710F0A61BB70B04
:10049000881F991F5A95A9F780959095BC01CD01A9
:1004A0000895A1E21A2EAA1BBB1BFD010DC0AA1FB5
:1004B000BB1FEE1FFF1FA217B307E407F50720F0CD
:1004C000A21BB30BE40BF50B661F771F881F991F48
:1004D0001A9469F760957095809590959B01AC0191
:0A04E000BD01CF010895F894FFCF8D
:1004EA000101544553540041757367616265206484
:1004FA006573204172726179730A0D000D0A004515
:10050A006E646520646573204172726179730A0DA5
:02051A000000DF
:00000001FF
