:100000000C9434000C9451000C94AC000C945100EE
:100010000C9451000C9451000C9451000C9451001C
:100020000C9451000C9451000C9451000C9451000C
:100030000C9451000C94D8000C9451000C94510075
:100040000C9451000C9451000C9451000C945100EC
:100050000C9451000C9451000C9451000C945100DC
:100060000C9451000C94510011241FBECFEFD8E026
:10007000DEBFCDBF11E0A0E0B1E0ECE7F2E002C0EE
:1000800005900D92AA30B107D9F728E0AAE0B1E0B7
:1000900001C01D92AB3DB207E1F70E94E2000C9453
:1000A0003C010C9400009B01AC0183E0220F331F44
:1000B000441F551F8A95D1F760E074E284EF90E009
:1000C0000E941A01215031093093C5002093C400C9
:1000D000E1ECF0E0808188618083E0ECF0E08081F9
:1000E0008260808308959091C00095FFFCCF80933B
:1000F000C6000895CF93DF93EC018991882319F00E
:100100000E947300FACFDF91CF910895E1E8F0E00B
:10011000808181608083EFE6F0E080818160808370
:100120000895109285001092840008952098289ACE
:100130000895E89AE9E6F0E080818160808308957F
:10014000FB01E751FC4F805D8293E617F707E1F76B
:10015000E851FC4F108208951F920F920FB60F9234
:1001600011248F939F93EF93FF93F894189B00C0F3
:10017000E0910A01F0E08091840090918500EE0FFB
:10018000FF1FE55FFE4F91838083109285001092E0
:10019000840080910A018F5F80930A017894FF9117
:1001A000EF919F918F910F900FBE0F901F90189518
:1001B0001F920F920FB60F9211240F900FBE0F9047
:1001C0001F901895CF93DF93CDB7DEB72A970FB660
:1001D000F894DEBF0FBECDBF60E072EC81E090E02E
:1001E0000E9453000E9499000E9496000E9486007F
:1001F000789401E010E080E091E00E947A002FEF17
:1002000083ED90E3215080409040E1F700C0000072
:1002100010930C0100930B0180910B0190910C0144
:10022000BE016E5F7F4F0E94A000CE0102960E9429
:100230007A00E1CFA1E21A2EAA1BBB1BFD010DC063
:10024000AA1FBB1FEE1FFF1FA217B307E407F50786
:1002500020F0A21BB30BE40BF50B661F771F881F62
:10026000991F1A9469F760957095809590959B01F8
:0C027000AC01BD01CF010895F894FFCF50
:0A027C005748494C452E0A0D0000BA
:00000001FF
