:100000000C9434000C9449000C9449000C94490061
:100010000C9449000C9449000C9449000C9449003C
:100020000C9449000C9449000C9449000C9449002C
:100030000C9449000C9449000C9449000C9449001C
:100040000C9449000C9449000C9449000C9449000C
:100050000C9449000C9449000C9449000C944900FC
:100060000C9449000C94490011241FBECFEFD8E036
:10007000DEBFCDBF11E0A0E0B1E0E0E4F5E002C0FA
:1000800005900D92A632B107D9F70E943E010C945B
:100090009E020C9400009B01AC0160E874E88EE1C4
:1000A00090E00E945201215031093093C500209305
:1000B000C40082E08093C00088E18093C10008956D
:1000C0009091C00095FFFCCF8093C6000895809169
:1000D000C00087FFFCCF8091C60008952091C0002A
:1000E00027FF06C02091C600FC01208381E008950F
:1000F00080E00895CF93DF93EC018991882319F074
:100100000E946000FACFDF91CF910895CF93DF93E3
:1001100080E091E00E947A00C0E0D0E0CE018F71D3
:100120009927892B21F482E291E00E947A00CE0186
:1001300087709927892B21F481E191E00E947A0050
:10014000CE010E942601805D0E9460002196C115AB
:1001500081E0D80719F783E191E0DF91CF910C940A
:100160007A0084EA8093BC008091BC0087FFFCCFBA
:10017000089584E98093BC00089584EC8093BC00CA
:100180008091BC0087FFFCCF8091BB00089584E87C
:100190008093BC008091BC0087FFFCCF8091BB00A6
:1001A00008958093BB0084E88093BC008091BC00DC
:1001B00087FFFCCF0895CF93C82F80E00E94D10025
:1001C0008C2FCF910C94D1008091B900887F089535
:1001D0009B01AC011092B90060E074E284EF90E002
:1001E0000E945201CA01B901605171098109910946
:1001F0000E94A30120E030E040E05FE30E9409029A
:100200000E9474016093B80084E08093BC0008955C
:100210000F931F93CF93DF931F92CDB7DEB78C015F
:1002200069830E94B10080EA0E94D100C8010E9447
:10023000DB006981862F0E94D10084E98093BC0095
:100240000F90DF91CF911F910F910895CF93DF937E
:10025000EC010E94B10080EA0E94D100CE010E9410
:10026000DB000E94B10081EA0E94D1000E94C70019
:1002700094E99093BC00DF91CF91089560E072EC17
:1002800081E090E00E944B0060E87AE186E090E037
:100290000E94E8006AEF80E090E00E9408010E945E
:1002A0008600FFCFA1E21A2EAA1BBB1BFD010DC0C9
:1002B000AA1FBB1FEE1FFF1FA217B307E407F50716
:1002C00020F0A21BB30BE40BF50B661F771F881FF2
:1002D000991F1A9469F760957095809590959B0188
:1002E000AC01BD01CF0108950E94E80188F09F573D
:1002F00098F0B92F9927B751B0F0E1F0660F771F4A
:10030000881F991F1AF0BA95C9F714C0B13091F03F
:100310000E940202B1E008950C940202672F782F28
:100320008827B85F39F0B93FCCF386957795679504
:10033000B395D9F73EF490958095709561957F4F70
:100340008F4F9F4F0895E89409C097FB3EF4909516
:100350008095709561957F4F8F4F9F4F9923A9F09E
:10036000F92F96E9BB279395F6958795779567952D
:10037000B795F111F8CFFAF4BB0F11F460FF1BC071
:100380006F5F7F4F8F4F9F4F16C0882311F096E904
:1003900011C0772321F09EE8872F762F05C06623B2
:1003A00071F096E8862F70E060E02AF09A95660F6B
:1003B000771F881FDAF7880F9695879597F9089524
:1003C00057FD9058440F551F59F05F3F71F0479506
:1003D000880F97FB991F61F09F3F79F087950895EB
:1003E000121613061406551FF2CF4695F1DF08C00A
:1003F000161617061806991FF1CF86957105610527
:1004000008940895E894BB2766277727CB0197F9CE
:1004100008950E941C020C948D020E947F0238F005
:100420000E94860220F0952311F00C9476020C9421
:100430007C0211240C9403020E94E00170F3959F4A
:10044000C1F3950F50E0551F629FF001729FBB27CB
:10045000F00DB11D639FAA27F00DB11DAA1F649F67
:100460006627B00DA11D661F829F2227B00DA11D1A
:10047000621F739FB00DA11D621F839FA00D611DA0
:10048000221F749F3327A00D611D231F849F600DC1
:10049000211D822F762F6A2F11249F5750409AF0EA
:1004A000F1F088234AF0EE0FFF1FBB1F661F771F76
:1004B000881F91505040A9F79E3F510580F00C9441
:1004C00076020C9403025F3FE4F3983ED4F38695E2
:1004D00077956795B795F795E7959F5FC1F7FE2BE1
:1004E000880F911D9695879597F9089597F99F67BD
:1004F00080E870E060E008959FEF80EC08950024AC
:100500000A941616170618060906089500240A9478
:1005100012161306140605060895092E0394000CFE
:1005200011F4882352F0BB0F40F4BF2B11F460FF8D
:1005300004C06F5F7F4F8F4F9F4F0895F894FFCF98
:100540000A0D64756D70696E6720656570726F6DF8
:100550000020000A0D656E64206F6620656570726C
:060560006F6D0A0D0000A2
:00000001FF
