:100000000C9434000C9449000C9449000C94490061
:100010000C9449000C9449000C9449000C9449003C
:100020000C9449000C9449000C9449000C9449002C
:100030000C9449000C9449000C9449000C9449001C
:100040000C9449000C9449000C9449000C9449000C
:100050000C9449000C9449000C9449000C944900FC
:100060000C9449000C94490011241FBECFEFD8E036
:10007000DEBFCDBF11E0A0E0B1E0E8EDF8E002C0E6
:1000800005900D92A032B107D9F70E9449010C9456
:100090006A040C94000084B18C6284B924988DB5F4
:1000A00081608DBD8CB58E658CBD08952A988EBDFE
:1000B0000DB407FEFDCF2A9A08952A9A89EF90E0A1
:1000C0000197F1F700C00000219A299887E99AE387
:1000D0000197F1F700C0000089E30E94560096E006
:1000E0009A95F1F700C08CE10E94560086E08A954F
:1000F000F1F700C082E50E94560096E09A95F1F76C
:1001000000C089E60E9456008FE493EC0197F1F756
:1001100000C0000084E70E94560096E09A95F1F72F
:1001200000C088E30E94560086E08A95F1F700C07F
:100130008FE00E94560096E09A95F1F700C081E0AA
:100140000E94560089EF90E00197F1F700C000008F
:1001500086E00E94560096E09A95F1F700C02A9A30
:1001600008952998813011F48FE003C0811107C0F0
:1001700088E00E94560086E08A95F1F700C0089555
:10018000299881E00E94560089EF90E00197F1F7ED
:1001900000C000000895299A0E94560086E08A95C2
:1001A000F1F700C008952998603108F06FE08111DF
:1001B00080E4860F80680E94560086E08A95F1F7F9
:1001C00000C00895CF92EF92FF920F931F93CF93A9
:1001D000DF93CDB7DEB7A1970FB6F894DEBF0FBEA1
:1001E000CDBF8CA560E0813029F480E00E94D3006F
:1001F00011E204C08BA50E94D30011E1612F70E0D1
:100200009E01215D3F4F4DA55EA5CE0101960E9446
:100210008901C82EFE0131967F0100E00C1510F017
:1002200080E202C0F70180810E94CB000F5F0117BE
:1002300069F0003139F4FCA5F13021F460E081E08F
:100240000E94D3008FEFE81AF80AE8CF80E090E030
:10025000A1960FB6F894DEBF0FBECDBFDF91CF9150
:100260001F910F91FF90EF90CF90089529988130C2
:1002700011F080E001C082E0613011F4816001C0C2
:100280008E7F8C600E94560086E08A95F1F700C050
:1002900008950E944B000E945D001F92D5E0DF93FD
:1002A00080E091E09F938F931F92C1E0CF930E94D3
:1002B000E2002FE382E49FE0215080409040E1F78C
:1002C00000C000001F92DF938FE091E09F938F9317
:1002D000CF931F920E94E2002FE382E49FE021501F
:1002E00080409040E1F700C0000060E081E00E94A3
:1002F000D3008CE30E94CB0060E080E00E943601D6
:100300008DB79EB70C960FB6F8949EBF0FBE8DBFEB
:10031000FFCFAEE0B0E0EFE8F1E00C9441048C01D7
:10032000CA0146E04C831A83098377FF02C060E06C
:1003300070E8FB013197FE83ED83A901BC01CE017A
:1003400001960E94B5014D815E8157FD0AC02F8143
:100350003885421753070CF49A01F801E20FF31F96
:1003600010822E96E4E00C945D04ACE0B0E0EBEB80
:10037000F1E00C9433047C016B018A01FC011782CB
:100380001682838181FFBDC1CE0101964C01F70128
:100390009381F60193FD859193FF81916F018823ED
:1003A00009F4ABC1853239F493FD859193FF8191B6
:1003B0006F01853229F4B70190E00E949D03E7CFD9
:1003C000512C312C20E02032A0F48B3269F030F433
:1003D000803259F0833269F420612CC08D3239F0BB
:1003E000803339F4216026C02260246023C0286055
:1003F00021C027FD27C030ED380F3A3078F426FFB2
:1004000006C0FAE05F9E300D1124532E13C08AE01F
:10041000389E300D1124332E20620CC08E3221F410
:1004200026FD6BC1206406C08C3611F4206802C022
:10043000883641F4F60193FD859193FF81916F0118
:100440008111C1CF982F9F7D9554933028F40C5F74
:100450001F4FFFE3F9830DC0833631F0833771F00E
:10046000833509F05BC022C0F801808189830E5F6B
:100470001F4F44244394512C540115C03801F2E01D
:100480006F0E711CF801A080B18026FF03C0652D9E
:1004900070E002C06FEF7FEFC5012C870E949203CE
:1004A0002C0183012C852F77222E17C03801F2E012
:1004B0006F0E711CF801A080B18026FF03C0652D6E
:1004C00070E002C06FEF7FEFC5012C870E948703A9
:1004D0002C012C852068222E830123FC1BC0832D38
:1004E00090E048165906B0F4B70180E290E00E940F
:1004F0009D033A94F4CFF50127FC859127FE819165
:100500005F01B70190E00E949D0331103A94F1E041
:100510004F1A51084114510471F7E5C0843611F0A7
:10052000893639F5F80127FF07C060817181828122
:1005300093810C5F1F4F08C060817181072E000CF2
:10054000880B990B0E5F1F4F2F76722E97FF09C0F5
:1005500090958095709561957F4F8F4F9F4F206844
:10056000722E2AE030E0A4010E94D503A82EA8181C
:1005700044C0853729F42F7EB22E2AE030E025C012
:10058000F22FF97FBF2E8F36C1F018F4883579F03D
:10059000B4C0803719F0883721F0AFC02F2F206109
:1005A000B22EB4FE0DC08B2D8460B82E09C024FF7E
:1005B0000AC09F2F9660B92E06C028E030E005C023
:1005C00020E130E002C020E132E0F801B7FE07C0D0
:1005D00060817181828193810C5F1F4F06C06081B1
:1005E000718180E090E00E5F1F4FA4010E94D5034F
:1005F000A82EA818FB2DFF777F2E76FE0BC0372D77
:100600003E7FA51450F474FE0AC072FC08C0372D5A
:100610003E7E05C0BA2C372D03C0BA2C01C0B52CC4
:1006200034FF0DC0FE01EA0DF11D8081803311F40D
:10063000397E09C032FF06C0B394B39404C0832F3F
:10064000867809F0B39433FD13C030FF06C05A2CEE
:10065000B31418F4530C5B18B32CB31468F4B7013B
:1006600080E290E03C870E949D03B3943C85F5CFE7
:10067000B31410F43B1801C0312C34FF12C0B70181
:1006800080E390E03C870E949D033C8532FF17C0C9
:1006900031FD03C088E790E002C088E590E0B70133
:1006A0000CC0832F867859F031FF02C08BE201C065
:1006B00080E237FD8DE2B70190E00E949D03A51412
:1006C00038F4B70180E390E00E949D035A94F7CF7D
:1006D000AA94F401EA0DF11D8081B70190E00E9417
:1006E0009D03A110F5CF332009F451CEB70180E26C
:1006F00090E00E949D033A94F6CFF701868197819E
:1007000002C08FEF9FEF2C96E2E10C944F04FC01A6
:100710000590615070400110D8F7809590958E0F2C
:100720009F1F0895FC016150704001900110D8F79F
:10073000809590958E0F9F1F08950F931F93CF93D1
:10074000DF93FB01238121FD03C08FEF9FEF28C0C2
:1007500022FF16C0468157812481358142175307F5
:1007600044F4A081B1819D012F5F3F4F31832083ED
:100770008C93268137812F5F3F4F3783268310C0AC
:10078000EB01092F182F0084F185E02D0995892BA5
:10079000E1F68E819F8101969F838E83812F902F1A
:1007A000DF91CF911F910F910895FA01AA27283068
:1007B00051F1203181F1E8946F936E7F6E5F7F4F2E
:1007C0008F4F9F4FAF4FB1E03ED0B4E03CD0670FAA
:1007D000781F891F9A1FA11D680F791F8A1F911DFD
:1007E000A11D6A0F711D811D911DA11D20D009F44D
:1007F00068943F912AE0269F11243019305D31938F
:10080000DEF6CF010895462F4770405D4193B3E077
:100810000FD0C9F7F6CF462F4F70405D4A3318F01E
:10082000495D31FD4052419302D0A9F7EACFB4E0CF
:10083000A6959795879577956795BA95C9F7009787
:100840006105710508959B01AC010A2E0694579528
:10085000479537952795BA95C9F7620F731F841F7F
:10086000951FA01D08952F923F924F925F926F9215
:100870007F928F929F92AF92BF92CF92DF92EF9230
:10088000FF920F931F93CF93DF93CDB7DEB7CA1BB1
:10089000DB0B0FB6F894DEBF0FBECDBF09942A88DC
:1008A000398848885F846E847D848C849B84AA8484
:1008B000B984C884DF80EE80FD800C811B81AA8111
:1008C000B981CE0FD11D0FB6F894DEBF0FBECDBFDC
:0808D000ED010895F894FFCF3B
:1008D800446173206973742065696E20256900443A
:1008E8006173206973742065696E2025692E000084
:00000001FF
