:100000000C9434000C9449000C9449000C94490061
:100010000C9449000C9449000C9449000C9449003C
:100020000C9449000C9449000C9449000C9449002C
:100030000C9449000C9449000C9449000C9449001C
:100040000C9449000C9449000C9449000C9449000C
:100050000C9449000C9449000C9449000C944900FC
:100060000C9449000C94490011241FBECFEFD8E036
:10007000DEBFCDBF11E0A0E0B1E0E4E4FCE002C0EF
:1000800005900D92A03CB107D9F70E9460020C9434
:1000900020060C9400009B01AC0160E874E88EE13E
:1000A00090E00E941D03215031093093C500209338
:1000B000C400E0ECF0E0808182608083E1ECF0E05D
:1000C00080818860808380818061808308959091A1
:1000D000C00095FFFCCF8093C60008958091C000BA
:1000E00087FFFCCF8091C6000895CF93DF93EC018A
:1000F0008991882319F00E946700FACFDF91CF9190
:10010000089584EA8093BC008091BC0087FFFCCFF7
:10011000089584E98093BC00089584EC8093BC002A
:100120008091BC0087FFFCCF8091BB00089584E8DC
:100130008093BC008091BC0087FFFCCF8091BB0006
:1001400008958093BB0084E88093BC008091BC003C
:1001500087FFFCCF08959B01AC011092B90060E0CD
:1001600074E284EF90E00E941D03DA01C901409718
:10017000A109B109B695A795979587958093B80081
:1001800084E08093BC0008951F93CF93DF931F9268
:10019000CDB7DEB7182F69830E94810080EA0E94E4
:1001A000A10080E00E94A100812F0E94A10069812E
:1001B000862F0E94A10084E98093BC000F90DF91FC
:1001C000CF911F910895CF92DF92EF92FF921F93EC
:1001D000CF93DF93442381F1D42F7B01C82F0E945A
:1001E000810080EA0E94A10080E00E94A1008C2F83
:1001F0000E94A1000E94810081EA0E94A10010E0FB
:100200004D2F50E0EA012197812F90E08C179D0738
:100210004CF46701C80ED91E0E948D00F601808340
:100220001F5FF2CFCE0DDF1D0E949700888384E907
:100230008093BC00812F01C080E0DF91CF911F919E
:10024000FF90EF90DF90CF900895FF920F931F9350
:10025000CF93DF9300D000D000D0CDB7DEB746E01B
:10026000BE016F5F7F4F8FE090E00E94E30080E06F
:1002700091E00E9475008E010F5F1F4F86E0F82EFF
:10028000F00EF80181918F019FEF980F933010F4D9
:10029000805D01C085E60E94670080E20E946700E1
:1002A000F012EFCF84E391E00E94750026960FB61E
:1002B000F894DEBF0FBECDBFDF91CF911F910F919C
:1002C000FF90089584B18C6284B924988DB58160C3
:1002D0008DBD8CB58E658CBD08952A988EBD0DB4EC
:1002E00007FEFDCF2A9A08952A9A89EF90E0019798
:1002F000F1F700C00000219A299887E99AE3019755
:10030000F1F700C0000089E30E946D0196E09A9524
:10031000F1F700C08CE10E946D0186E08A95F1F74B
:1003200000C082E50E946D0196E09A95F1F700C049
:1003300089E60E946D018FE493EC0197F1F700C00C
:10034000000084E70E946D0196E09A95F1F700C0E5
:1003500088E30E946D0186E08A95F1F700C08FE086
:100360000E946D0196E09A95F1F700C081E00E942D
:100370006D0189EF90E00197F1F700C0000086E081
:100380000E946D0196E09A95F1F700C02A9A0895AF
:100390002998813011F48FE003C0811107C088E0F3
:1003A0000E946D0186E08A95F1F700C008952998B2
:1003B00081E00E946D0189EF90E00197F1F700C0A4
:1003C00000000895299A0E946D0186E08A95F1F750
:1003D00000C008952998603108F06FE0811180E431
:1003E000860F80680E946D0186E08A95F1F700C053
:1003F0000895CF92EF92FF920F931F93CF93DF93C5
:10040000CDB7DEB7A1970FB6F894DEBF0FBECDBF54
:100410008CA560E0813029F480E00E94EA0111E2BD
:1004200004C08BA50E94EA0111E1612F70E09E01DA
:10043000215D3F4F4DA55EA5CE0101960E943F0371
:10044000C82EFE0131967F0100E00C1510F080E20D
:1004500002C0F70180810E94E2010F5F011769F07D
:10046000003139F4FCA5F13021F460E081E00E9414
:10047000EA018FEFE81AF80AE8CF80E090E0A19651
:100480000FB6F894DEBF0FBECDBFDF91CF911F91A5
:100490000F91FF90EF90CF9008952998813011F03F
:1004A00080E001C082E0613011F4816001C08E7F84
:1004B0008C600E946D0186E08A95F1F700C0089576
:1004C000CF93DF9300D000D000D0CDB7DEB760E08F
:1004D00072EC81E090E00E944B0060EA76E881E0F7
:1004E00090E00E94AB008AB18F718AB98BB1806EA7
:1004F0008BB98CE291E00E9475000E94250187E390
:1005000091E00E94750086E30E94670085E491E017
:100510000E94750010E0CE0101967C0102E0992452
:10052000939493E0892E26E0722E7E0C89B1807E12
:10053000803AA1F1803CB1F0803609F056C0F70155
:10054000E10FF11D80821F5F82E891E00E9475003B
:10055000FFEF20E782E0F15020408040E1F700C04B
:10056000000038C0F701E10FF11D90821F5F8CE59C
:1005700091E00E9475009FEFE0E7F2E09150E040CB
:10058000F040E1F700C000004D9BFECF2FEF80E769
:1005900092E0215080409040E1F725C0F701E10F43
:1005A000F11D00831F5F8FE691E00E947500EFEF61
:1005B000F0E722E0E150F0402040E1F700C0000009
:1005C0004E9BFECF8FEF90E7E2E081509040E040FD
:1005D000E1F709C04F9BFECF9FEFE0E7F2E09150BB
:1005E000E040F040E1F700C00000163009F09ECF77
:1005F00067018FE0A82EB12CF60161916F01C50152
:100600000E94C4008FE39CE90197F1F700C000004D
:100610009FEFA91AB90A7C10EFCF85E991E00E94FB
:100620007500EFEFF0E722E0E150F0402040E1F705
:1006300000C000000C94000079CFA1E21A2EAA1B82
:10064000BB1BFD010DC0AA1FBB1FEE1FFF1FA21782
:10065000B307E407F50720F0A21BB30BE40BF50B7F
:10066000661F771F881F991F1A9469F76095709508
:10067000809590959B01AC01BD01CF010895AEE03E
:10068000B0E0E5E4F3E00C94F7058C01CA0146E024
:100690004C831A83098377FF02C060E070E8FB0196
:1006A0003197FE83ED83A901BC01CE0101960E9422
:1006B0006B034D815E8157FD0AC02F81388542173B
:1006C00053070CF49A01F801E20FF31F10822E96E3
:1006D000E4E00C941306ACE0B0E0E1E7F3E00C9446
:1006E000E9057C016B018A01FC0117821682838176
:1006F00081FFBDC1CE0101964C01F7019381F60146
:1007000093FD859193FF81916F01882309F4ABC11B
:10071000853239F493FD859193FF81916F01853284
:1007200029F4B70190E00E945305E7CF512C312CFA
:1007300020E02032A0F48B3269F030F4803259F09E
:10074000833269F420612CC08D3239F0803339F462
:10075000216026C02260246023C0286021C027FDBC
:1007600027C030ED380F3A3078F426FF06C0FAE0A3
:100770005F9E300D1124532E13C08AE0389E300D39
:100780001124332E20620CC08E3221F426FD6BC161
:10079000206406C08C3611F4206802C0883641F40B
:1007A000F60193FD859193FF81916F018111C1CF76
:1007B000982F9F7D9554933028F40C5F1F4FFFE3D3
:1007C000F9830DC0833631F0833771F0833509F03A
:1007D0005BC022C0F801808189830E5F1F4F4424D3
:1007E0004394512C540115C03801F2E06F0E711C76
:1007F000F801A080B18026FF03C0652D70E002C023
:100800006FEF7FEFC5012C870E9448052C01830103
:100810002C852F77222E17C03801F2E06F0E711C45
:10082000F801A080B18026FF03C0652D70E002C0F2
:100830006FEF7FEFC5012C870E943D052C012C85B1
:100840002068222E830123FC1BC0832D90E04816D4
:100850005906B0F4B70180E290E00E9453053A9443
:10086000F4CFF50127FC859127FE81915F01B70147
:1008700090E00E94530531103A94F1E04F1A51086C
:100880004114510471F7E5C0843611F0893639F509
:10089000F80127FF07C060817181828193810C5F1D
:1008A0001F4F08C060817181072E000C880B990BC7
:1008B0000E5F1F4F2F76722E97FF09C0909580957F
:1008C000709561957F4F8F4F9F4F2068722E2AE061
:1008D00030E0A4010E948B05A82EA81844C08537DB
:1008E00029F42F7EB22E2AE030E025C0F22FF97FC6
:1008F000BF2E8F36C1F018F4883579F0B4C0803738
:1009000019F0883721F0AFC02F2F2061B22EB4FE2E
:100910000DC08B2D8460B82E09C024FF0AC09F2F04
:100920009660B92E06C028E030E005C020E130E036
:1009300002C020E132E0F801B7FE07C0608171819A
:10094000828193810C5F1F4F06C06081718180E0BE
:1009500090E00E5F1F4FA4010E948B05A82EA818DF
:10096000FB2DFF777F2E76FE0BC0372D3E7FA51423
:1009700050F474FE0AC072FC08C0372D3E7E05C0DC
:10098000BA2C372D03C0BA2C01C0B52C34FF0DC0D2
:10099000FE01EA0DF11D8081803311F4397E09C01A
:1009A00032FF06C0B394B39404C0832F867809F055
:1009B000B39433FD13C030FF06C05A2CB31418F49F
:1009C000530C5B18B32CB31468F4B70180E290E0C9
:1009D0003C870E945305B3943C85F5CFB31410F4C3
:1009E0003B1801C0312C34FF12C0B70180E390E006
:1009F0003C870E9453053C8532FF17C031FD03C080
:100A000088E790E002C088E590E0B7010CC0832F32
:100A1000867859F031FF02C08BE201C080E237FDD9
:100A20008DE2B70190E00E945305A51438F4B70198
:100A300080E390E00E9453055A94F7CFAA94F40102
:100A4000EA0DF11D8081B70190E00E945305A110CD
:100A5000F5CF332009F451CEB70180E290E00E9437
:100A600053053A94F6CFF7018681978102C08FEF44
:100A70009FEF2C96E2E10C940506FC010590615075
:100A800070400110D8F7809590958E0F9F1F0895A4
:100A9000FC016150704001900110D8F7809590954D
:100AA0008E0F9F1F08950F931F93CF93DF93FB012A
:100AB000238121FD03C08FEF9FEF28C022FF16C0C6
:100AC00046815781248135814217530744F4A08120
:100AD000B1819D012F5F3F4F318320838C9326810D
:100AE00037812F5F3F4F3783268310C0EB01092FDB
:100AF000182F0084F185E02D0995892BE1F68E8170
:100B00009F8101969F838E83812F902FDF91CF91BC
:100B10001F910F910895FA01AA27283051F1203131
:100B200081F1E8946F936E7F6E5F7F4F8F4F9F4F81
:100B3000AF4FB1E03ED0B4E03CD0670F781F891FC3
:100B40009A1FA11D680F791F8A1F911DA11D6A0F91
:100B5000711D811D911DA11D20D009F468943F9144
:100B60002AE0269F11243019305D3193DEF6CF0143
:100B70000895462F4770405D4193B3E00FD0C9F709
:100B8000F6CF462F4F70405D4A3318F0495D31FD76
:100B90004052419302D0A9F7EACFB4E0A6959795C9
:100BA000879577956795BA95C9F70097610571059F
:100BB00008959B01AC010A2E0694579547953795E9
:100BC0002795BA95C9F7620F731F841F951FA01D43
:100BD00008952F923F924F925F926F927F928F92E1
:100BE0009F92AF92BF92CF92DF92EF92FF920F93BC
:100BF0001F93CF93DF93CDB7DEB7CA1BDB0B0FB6C6
:100C0000F894DEBF0FBECDBF09942A883988488882
:100C10005F846E847D848C849B84AA84B984C88418
:100C2000DF80EE80FD800C811B81AA81B981CE0F0F
:100C3000D11D0FB6F894DEBF0FBECDBFED010895F4
:040C4000F894FFCF56
:100C4400466F6C6C6F77696E6720627574746F6E33
:100C54007320776572652070726573736564206CA8
:100C64006173742074696D653A0D0A0057656C638D
:100C74006F6D65210D0A00506C656173652070729B
:100C8400657373200020627574746F6E7320746FC3
:100C940020636F6E74696E75650D0A004275747415
:100CA4006F6E203120707265737365640D0A0042A3
:100CB4007574746F6E203220707265737365640D81
:100CC4000A00427574746F6E2033207072657373FA
:100CD40065640D0A00416C6C20627574746F6E73E8
:100CE4002070726573736564202620736176656471
:100CF400202D3E20726573657474696E670D0A0059
:00000001FF
