:100000000C9434000C9451000C9451000C94510049
:100010000C9451000C9451000C9451000C9451001C
:100020000C9451000C9451000C9451000C9451000C
:100030000C9451000C9451000C9451000C945100FC
:100040000C9453000C9451000C9451000C945100EA
:100050000C9451000C9451000C9451000C945100DC
:100060000C9451000C94510011241FBECFEFD8E026
:10007000DEBFCDBF11E0A0E0B1E0E6E3F2E002C0F8
:1000800005900D92A034B107D9F721E0A0E4B1E0CA
:1000900001C01D92A234B207E1F70E94CC000C947B
:1000A00019010C9400001F920F920FB60F921124A9
:1000B0008F939F93809141018A3011F410924101F6
:1000C00087EE86BD9BB188E089278BB9909140016E
:1000D00080914101891710F45B9A01C05B9880916F
:1000E00041018F5F809341019F918F910F900FBECF
:1000F0000F901F90189583E085BD81E080936E007E
:1001000087EE86BD08958AB18AB908959B01AC0136
:1001100083E0220F331F441F551F8A95D1F760E0FB
:1001200074E284EF90E00E94F7002150310930938F
:10013000C5002093C400E1ECF0E0808188618083F9
:10014000E0ECF0E080818260808308958091C000BF
:1001500087FFFCCF8091C60008959091C00095FF65
:10016000FCCF8093C6000895CF93DF93EC01899173
:10017000882319F00E94AD00FACFDF91CF91089546
:100180002091C00027FF06C02091C600FC012083FB
:1001900081E0089580E00895CF93DF931F92CDB75B
:1001A000DEB70E94830060E072EC81E090E00E9484
:1001B00086000E947B00789480E091E00E94B40069
:1001C0008EE191E00E94B4001982CE0101960E9456
:1001D000C0009981905399838823B9F39A30A8F786
:1001E0009093400180E391E00E94B400EECFA1E241
:1001F0001A2EAA1BBB1BFD010DC0AA1FBB1FEE1FA1
:10020000FF1FA217B307E407F50720F0A21BB30BEB
:10021000E40BF50B661F771F881F991F1A9469F767
:1002200060957095809590959B01AC01BD01CF01C3
:060230000895F894FFCFD1
:10023600534C4950202D2053657879204C45442055
:10024600496E7075742050574D20200D0A00534C8E
:10025600495020696E69746961746564200D0A00ED
:100266002077617320656E74657265642E0D0A00D1
:00000001FF
