:100000000C9434000C9451000C9451000C94510049
:100010000C9451000C9451000C9451000C9451001C
:100020000C9451000C9451000C9451000C9451000C
:100030000C9451000C9451000C9451000C945100FC
:100040000C9453000C9451000C9451000C945100EA
:100050000C9451000C9451000C9451000C945100DC
:100060000C9451000C94510011241FBECFEFD8E026
:10007000DEBFCDBF11E0A0E0B1E0ECE9F2E002C0EC
:1000800005900D92AC30B107D9F721E0ACE0B1E0BA
:1000900001C01D92AE30B207E1F70E9407010C9437
:1000A0004C010C9400001F920F920FB60F92112476
:1000B0002F938F939F9386E086BD95B185E0892726
:1000C00085B980910C0190910D010196843F21E04A
:1000D000920729F090930D0180930C0108C01092B3
:1000E0000D0110920C0195B180E2892785B99F918D
:1000F0008F912F910F900FBE0F901F90189583E056
:1001000085BD81E080936E000895EAE7F0E087E026
:10011000808380818068808380E480937C00089560
:10012000CF93DF939B01FB013496CAE0D0E0BE0180
:100130000E941601805D8293CB01E217F307B9F7A5
:100140001482DF91CF91089590917C00907F9093DD
:100150007C0090917C00892B80937C0080917A00B8
:10016000806480937A0080917A0086FDFCCF209194
:1001700078008091790090E0982F8827820F911D58
:1001800008959B01AC0183E0220F331F441F551FCC
:100190008A95D1F760E074E284EF90E00E942A0132
:1001A000215031093093C5002093C400E1ECF0E008
:1001B000808188618083E0ECF0E0808182608083D0
:1001C00008958091C00087FFFCCF8091C6000895FC
:1001D0009091C00095FFFCCF8093C6000895CF9307
:1001E000DF93EC018991882319F00E94E800FACF8F
:1001F000DF91CF9108952091C00027FF06C0209184
:10020000C600FC01208381E0089580E00895259ACE
:1002100060E072EC81E090E00E94C10080E091E03B
:100220000E94EF000E947F007894FFCFAA1BBB1BA7
:1002300051E107C0AA1FBB1FA617B70710F0A61BE6
:10024000B70B881F991F5A95A9F780959095BC0107
:10025000CD010895A1E21A2EAA1BBB1BFD010DC002
:10026000AA1FBB1FEE1FFF1FA217B307E407F50766
:1002700020F0A21BB30BE40BF50B661F771F881F42
:10028000991F1A9469F760957095809590959B01D8
:0C029000AC01BD01CF010895F894FFCF30
:0C029C0074696D65722072656164790000
:00000001FF
